{
  "address": "0x58034592879fAFF08fBa5192bFf244f0B8bA6dD9",
  "abi": [
    {
      "inputs": [
        {
          "internalType": "uint256",
          "name": "root",
          "type": "uint256"
        },
        {
          "internalType": "uint256",
          "name": "groupId",
          "type": "uint256"
        },
        {
          "internalType": "uint256",
          "name": "signalHash",
          "type": "uint256"
        },
        {
          "internalType": "uint256",
          "name": "nullifierHash",
          "type": "uint256"
        },
        {
          "internalType": "uint256",
          "name": "externalNullifierHash",
          "type": "uint256"
        },
        {
          "internalType": "uint256[8]",
          "name": "proof",
          "type": "uint256[8]"
        }
      ],
      "name": "verifyProof",
      "outputs": [],
      "stateMutability": "view",
      "type": "function"
    }
  ],
  "transactionHash": "0x3e66aaa68870ba8fd2b8e1f3ad9ff35b78716e52532e519631fd2566474f42a3",
  "args": [],
  "numDeployments": 1,
  "solcInputHash": "dc3b8a713307ee414b3889d3a2506864",
  "bytecode": "0x608060405234801561001057600080fd5b5060d18061001f6000396000f3fe6080604052348015600f57600080fd5b506004361060285760003560e01c80633bc778e314602d575b600080fd5b604060383660046042565b505050505050565b005b6000806000806000806101a080888a031215605c57600080fd5b8735965060208801359550604088013594506060880135935060808801359250888189011115608a57600080fd5b5060a087019050929550929550929556fea2646970667358221220e0e966e4b8c986a9094a606cc1b00798f1760f9d37ccd5e0438e9f42a2e69ce464736f6c63430008110033",
  "devdoc": {
    "kind": "dev",
    "methods": {
      "verifyProof(uint256,uint256,uint256,uint256,uint256,uint256[8])": {
        "details": "In a real-world scenario, this would not be secure or practical.",
        "params": {
          "externalNullifierHash": "A keccak256 hash of the external nullifier (ignored in this mock).",
          "groupId": "The id of the Semaphore group (ignored in this mock).",
          "nullifierHash": "The nullifier hash (ignored in this mock).",
          "proof": "The zero-knowledge proof (ignored in this mock).",
          "root": "The root of the Merkle tree (ignored in this mock).",
          "signalHash": "A keccak256 hash of the Semaphore signal (ignored in this mock)."
        }
      }
    },
    "version": 1
  },
  "userdoc": {
    "kind": "user",
    "methods": {
      "verifyProof(uint256,uint256,uint256,uint256,uint256,uint256[8])": {
        "notice": "This implementation of IWorldID's verifyProof method always passes successfully."
      }
    },
    "version": 1
  },
  "storageLayout": {
    "storage": [],
    "types": null
  }
}